{
  "_format": "hh-sol-artifact-1",
  "contractName": "ToDoList",
  "sourceName": "contracts/ToDoList.sol",
  "abi": [
    {
      "inputs": [],
      "stateMutability": "nonpayable",
      "type": "constructor"
    },
    {
      "anonymous": false,
      "inputs": [
        {
          "indexed": true,
          "internalType": "uint256",
          "name": "id",
          "type": "uint256"
        }
      ],
      "name": "TaskCompleted",
      "type": "event"
    },
    {
      "inputs": [
        {
          "internalType": "string",
          "name": "task",
          "type": "string"
        }
      ],
      "name": "addTask",
      "outputs": [],
      "stateMutability": "nonpayable",
      "type": "function"
    },
    {
      "inputs": [
        {
          "internalType": "uint256",
          "name": "id",
          "type": "uint256"
        }
      ],
      "name": "completeTask",
      "outputs": [],
      "stateMutability": "nonpayable",
      "type": "function"
    },
    {
      "inputs": [],
      "name": "count",
      "outputs": [
        {
          "internalType": "uint256",
          "name": "",
          "type": "uint256"
        }
      ],
      "stateMutability": "view",
      "type": "function"
    },
    {
      "inputs": [
        {
          "internalType": "uint256",
          "name": "",
          "type": "uint256"
        }
      ],
      "name": "list",
      "outputs": [
        {
          "internalType": "string",
          "name": "task",
          "type": "string"
        },
        {
          "internalType": "bool",
          "name": "isCompleted",
          "type": "bool"
        }
      ],
      "stateMutability": "view",
      "type": "function"
    },
    {
      "inputs": [],
      "name": "owner",
      "outputs": [
        {
          "internalType": "address",
          "name": "",
          "type": "address"
        }
      ],
      "stateMutability": "view",
      "type": "function"
    }
  ],
  "bytecode": "0x6080604052600060015534801561001557600080fd5b5033600260006101000a81548173ffffffffffffffffffffffffffffffffffffffff021916908373ffffffffffffffffffffffffffffffffffffffff160217905550610afd806100666000396000f3fe608060405234801561001057600080fd5b50600436106100575760003560e01c806306661abd1461005c578063672385621461007a57806380c9419e146100965780638da5cb5b146100c7578063e1e29558146100e5575b600080fd5b610064610101565b6040516100719190610470565b60405180910390f35b610094600480360381019061008f91906104fa565b610107565b005b6100b060048036038101906100ab9190610573565b610262565b6040516100be92919061064b565b60405180910390f35b6100cf61031b565b6040516100dc91906106bc565b60405180910390f35b6100ff60048036038101906100fa9190610573565b610341565b005b60015481565b3373ffffffffffffffffffffffffffffffffffffffff16600260009054906101000a900473ffffffffffffffffffffffffffffffffffffffff1673ffffffffffffffffffffffffffffffffffffffff1614610197576040517f08c379a000000000000000000000000000000000000000000000000000000000815260040161018e90610723565b60405180910390fd5b6000604051806040016040528084848080601f016020809104026020016040519081016040528093929190818152602001838380828437600081840152601f19601f8201169050808301925050505050505081526020016000151581525090508060008060015481526020019081526020016000206000820151816000019081610221919061097e565b5060208201518160010160006101000a81548160ff0219169083151502179055509050506001600081548092919061025890610a7f565b9190505550505050565b6000602052806000526040600020600091509050806000018054610285906107a1565b80601f01602080910402602001604051908101604052809291908181526020018280546102b1906107a1565b80156102fe5780601f106102d3576101008083540402835291602001916102fe565b820191906000526020600020905b8154815290600101906020018083116102e157829003601f168201915b5050505050908060010160009054906101000a900460ff16905082565b600260009054906101000a900473ffffffffffffffffffffffffffffffffffffffff1681565b3373ffffffffffffffffffffffffffffffffffffffff16600260009054906101000a900473ffffffffffffffffffffffffffffffffffffffff1673ffffffffffffffffffffffffffffffffffffffff16146103d1576040517f08c379a00000000000000000000000000000000000000000000000000000000081526004016103c890610723565b60405180910390fd5b60008082815260200190815260200160002060010160009054906101000a900460ff1661045457600160008083815260200190815260200160002060010160006101000a81548160ff021916908315150217905550807fc1fa7142cfb933d0855114a3bffde296944c30b727f297c14d0db4d553d3a5c760405160405180910390a25b50565b6000819050919050565b61046a81610457565b82525050565b60006020820190506104856000830184610461565b92915050565b600080fd5b600080fd5b600080fd5b600080fd5b600080fd5b60008083601f8401126104ba576104b9610495565b5b8235905067ffffffffffffffff8111156104d7576104d661049a565b5b6020830191508360018202830111156104f3576104f261049f565b5b9250929050565b600080602083850312156105115761051061048b565b5b600083013567ffffffffffffffff81111561052f5761052e610490565b5b61053b858286016104a4565b92509250509250929050565b61055081610457565b811461055b57600080fd5b50565b60008135905061056d81610547565b92915050565b6000602082840312156105895761058861048b565b5b60006105978482850161055e565b91505092915050565b600081519050919050565b600082825260208201905092915050565b60005b838110156105da5780820151818401526020810190506105bf565b60008484015250505050565b6000601f19601f8301169050919050565b6000610602826105a0565b61060c81856105ab565b935061061c8185602086016105bc565b610625816105e6565b840191505092915050565b60008115159050919050565b61064581610630565b82525050565b6000604082019050818103600083015261066581856105f7565b9050610674602083018461063c565b9392505050565b600073ffffffffffffffffffffffffffffffffffffffff82169050919050565b60006106a68261067b565b9050919050565b6106b68161069b565b82525050565b60006020820190506106d160008301846106ad565b92915050565b7f4f6e6c79206f776e65722063616e2063616c6c20746869730000000000000000600082015250565b600061070d6018836105ab565b9150610718826106d7565b602082019050919050565b6000602082019050818103600083015261073c81610700565b9050919050565b7f4e487b7100000000000000000000000000000000000000000000000000000000600052604160045260246000fd5b7f4e487b7100000000000000000000000000000000000000000000000000000000600052602260045260246000fd5b600060028204905060018216806107b957607f821691505b6020821081036107cc576107cb610772565b5b50919050565b60008190508160005260206000209050919050565b60006020601f8301049050919050565b600082821b905092915050565b6000600883026108347fffffffffffffffffffffffffffffffffffffffffffffffffffffffffffffffff826107f7565b61083e86836107f7565b95508019841693508086168417925050509392505050565b6000819050919050565b600061087b61087661087184610457565b610856565b610457565b9050919050565b6000819050919050565b61089583610860565b6108a96108a182610882565b848454610804565b825550505050565b600090565b6108be6108b1565b6108c981848461088c565b505050565b5b818110156108ed576108e26000826108b6565b6001810190506108cf565b5050565b601f82111561093257610903816107d2565b61090c846107e7565b8101602085101561091b578190505b61092f610927856107e7565b8301826108ce565b50505b505050565b600082821c905092915050565b600061095560001984600802610937565b1980831691505092915050565b600061096e8383610944565b9150826002028217905092915050565b610987826105a0565b67ffffffffffffffff8111156109a05761099f610743565b5b6109aa82546107a1565b6109b58282856108f1565b600060209050601f8311600181146109e857600084156109d6578287015190505b6109e08582610962565b865550610a48565b601f1984166109f6866107d2565b60005b82811015610a1e578489015182556001820191506020850194506020810190506109f9565b86831015610a3b5784890151610a37601f891682610944565b8355505b6001600288020188555050505b505050505050565b7f4e487b7100000000000000000000000000000000000000000000000000000000600052601160045260246000fd5b6000610a8a82610457565b91507fffffffffffffffffffffffffffffffffffffffffffffffffffffffffffffffff8203610abc57610abb610a50565b5b60018201905091905056fea2646970667358221220e11e84c761b0121e13b7f79a7b1af557dd147166293715cc490d2c43a6b0b9fe64736f6c63430008130033",
  "linkReferences": {},
  "deployedLinkReferences": {}
}